:100000000C9416030C943E030C943E030C943E0394
:100010000C943E030C943E030C943E030C943E035C
:100020000C943E030C943E030C943E030C943E034C
:100030000C943E030C9440030C940C040C943E036B
:100040000C94BD030C943E030C943E030C943E03AD
:100050000C943E030C943E030C943E030C943E031C
:100060000C943E030C943E03000000000000004F7F
:1000700000000007000700147F147F14242A7F2A41
:10008000122313086462364955225000050300000C
:10009000001C2241000041221C0014083E081408E4
:1000A000083E0808005030000008080808080060F2
:1000B00060000020100804023E5149453E00427F86
:1000C000400042615149462141454B311814127F8D
:1000D0001027454545393C4A494930017109050316
:1000E0003649494936064949291E0036360000007E
:1000F0005636000008142241001414141414004150
:100100002214080201510906324979413E7E11113B
:10011000117E7F494949363E414141227F4141227A
:100120001C7F494949417F090909013E4149497AF2
:100130007F0808087F00417F41002040413F017F48
:10014000081422417F404040407F020C027F7F0420
:1001500008107F3E4141413E7F090909063E415159
:10016000215E7F09192946464949493101017F012C
:10017000013F4040403F1F2040201F3F4030403F54
:100180006314081463070870080761514945430068
:100190007F41410002040810200041417F00040219
:1001A0000102044040404040000102040020545439
:1001B00054787F484848303844444444304848489C
:1001C0007F385454545800087E0902485454543C13
:1001D0007F0808087000007A00002040403D0000C1
:1001E0007F10284400417F40007C0438047C7C0858
:1001F00004047838444444387C1414140808141453
:10020000147C7C08040408485454542404043F44D7
:10021000243C4040403C1C2040201C3C4030403CA2
:10022000442810284404483008044464544C4400D2
:1002300008364141000077000041413608000402C1
:1002400002020115167C16157D5454544500040A0B
:10025000050020443E0502213F2000047F40404825
:1002600040384428106C727C06020230484A4D38EF
:1002700010385454541F02023C403E49493E00424B
:10028000221C2040047C047C4408043C44041824C0
:100290007E2418384430443841635549415C620239
:1002A000625C2A2A2A2A2A221408142208082A0808
:1002B00008000E11110E06095101027F7F494949BC
:1002C0005058545251515254585014341C16142042
:1002D0007F0101013249493E0020403E01021C22BB
:1002E0001C221C552A552A55000000000000007DE4
:1002F00000001C227F2200487E4949425D222222C2
:100300005D15167C161500007700000A5555552816
:1003100000010001003E5D55553E485555555E08AB
:10032000142A5522010101010300000000003E557E
:100330005D413E0101010101000705070044445FE2
:1003400044440012191512000015150E0000020198
:1003500000201F080807067F017F01000008080031
:10036000100040200000121F100000171517002277
:10037000552A14080F203028740F004864587F7FD6
:100380007F7F7F3048454020781516147878141602
:1003900015787815151578791515157979141414BB
:1003A0007978161516787E097F49490E5131111159
:1003B0007C555654447C545655447C555555447D83
:1003C0005454544500457E440000447E4500004599
:1003D0007D450000457C4500087F49413E7D09116F
:1003E000217D3845464438384446453838454545EA
:1003F00038394545453939444444392214081422D2
:100400005C322A261D3C4142403C3C4042413C3C3F
:100410004141413C3D4040403D06087209067F2273
:1004200022221C7E25251A00205556547820545629
:1004300055782055555578215555557920555455A1
:10044000782056555678745438545C0C5232120049
:1004500038555654583854565558385555555838B7
:100460005554555800017A000000007A010000023E
:100470007A0200000278020030484A4D387D0905B2
:10048000057930494A483030484A4930304A4A4A6A
:1004900030324A4A4A32304A484A300808082A0864
:1004A00018643C26183841424038384042413838B8
:1004B00042424238384240423804483209047F12EE
:1004C000120C0004493009047B41EAE9D1B9BB614F
:1004D000FBF9010204081020408048656C6C6967D4
:1004E0006B656974005374756E64656E004D696E5A
:1004F0007574656E0053656B756E64656E0054614E
:1005000067004D6F6E6174004A616872005A6569D8
:10051000676572005A6966662E626C617474004584
:100520004E4445001F1C1F1E1F1E1F1F1E1F1E1F87
:100530001A0118011601140112010E010C010A0121
:1005400008011001800000010102010203040304FC
:10055000070803040304010201020001003F3F40B9
:100560007F003F40003F000101020304010200013F
:100570000003030407080F101F200F1007080304CF
:100580000003001F1F203F407F80FF007F803F400F
:100590001F20001F8000000000800000000080007D
:1005A00000000080000000008000000000800000CB
:1005B00000008000000000800000000080000000BB
:1005C00000800000000080000000008000000000AB
:1005D000800000000000000000000000000000801B
:1005E000000000000000000000000000000080008B
:1005F000000000000000000000000000008000007B
:10060000000000000000000000000000FC09018262
:1006100005FC09007005FE05026605FE05015C0586
:10062000FB0B0046050001024405A20911241FBE70
:10063000CFEFD8E0DEBFCDBF11E0A0E0B1E0E2ED4A
:10064000FBE102C005900D92A23DB107D9F722E06F
:10065000A2EDB1E001C01D92A838B207E1F713E0A6
:10066000C6E1D3E004C02197FE010E94CB0DC53145
:10067000D107C9F70E94CD0C0C94E70D0C94000033
:100680000F930FB70F930091860203950093860294
:1006900029F4009187020395009387020F910FBF01
:1006A0000F91189563E580E090E00E94D90D61E418
:1006B00081E090E00E94D90D62E482E090E00E9427
:1006C000D90D61E483E090E00E94D90D60916C0245
:1006D00084E090E00E94D90D60916B0285E090E08B
:1006E0000E94D90D67B578B586E090E00C94D90DDD
:1006F00080E090E00E94D10D8335A9F581E090E083
:100700000E94D10D813479F582E090E00E94D10DF4
:10071000823449F583E090E00E94D10D813419F5CF
:1007200084E090E00E94D10D9091D001891710F4DF
:1007300080936C0285E090E00E94D10D9091D101F0
:100740002BEA929F912D11249695891710F480938E
:100750006B0286E090E00E94D10D843118F090E0A9
:1007600098BD87BD089580E0089581E0909153027F
:10077000911180E08093530208951F920F920FB65B
:100780000F9211242F933F938F939F93EF93FF9397
:100790008FEF85B980915302E0915202882351F086
:1007A00088E0E89FF0011124EE52FE4F9F01285F80
:1007B0003F4F07C088E0E89FF0011124EE5EFD4F37
:1007C000F5CF919188E090FF02C0409A01C0409817
:1007D000419A419896958150B1F7E217F30789F74E
:1007E000429A4298E0915202E770F0E0EE52FB4FDD
:1007F000E491E095E5B9809152028F5F8770809314
:100800005202FF91EF919F918F913F912F910F9005
:100810000FBE0F901F9018951F920F920FB60F9258
:1008200011248F938FEF85B98F910F900FBE0F908A
:100830001F90189580915302811103C0E2EDF1E001
:1008400002C0E2E1F2E080E4DF011D928A95E9F75F
:100850000895389A4098399A41983A9A42988FEF79
:1008600084B985B910925202109253020E941A0460
:100870000E94B5030E941A0484B58C7F84BD85B59F
:10088000877F85BD85B5887F836085BDEEE6F0E016
:1008900080818160808380818260808380E390E0BA
:1008A00098BD87BD0895CF93DF936C33A0F59091E9
:1008B0005302911103C0C2EDD1E002C0C2E1D2E007
:1008C000877028E0829FC0011124653008F06C5FBA
:1008D000EBEFE60F2E2F2F73A22FB0E023E0B5959C
:1008E000A7952A95E1F7A80FB91FAC0FBD1FE770B8
:1008F0008C91F0E0EE52FB4F442321F0E491E82B81
:10090000EC9309C0249130E020953095E82FF0E079
:100910002E233F232C93DF91CF910895CF92DF9226
:10092000EF92FF920F931F93CF93DF931F92CDB758
:10093000DEB7603250F1605295E0699F900111245A
:1009400028593F4F6CE30E94890D7901E5E0EE0ED6
:10095000F11C6901F601049110E0000F402F441FC3
:100960004427441F692F812F99830E9453041F5FDE
:100970009981173091F79F5F9C3309F490E0FFEF66
:10098000CF1ADF0ACE14DF0429F70F90DF91CF9141
:100990001F910F91FF90EF90DF90CF9008950F93EC
:1009A0001F93CF93DF93C82FDCE3D80F8B01F8019F
:1009B0006491662341F08C2F0E948E04CA5F0F5F02
:1009C0001F4FCD13F4CFDF91CF911F910F91089559
:1009D000843000F521E030E0A90102C0440F551F2A
:1009E0008A95E2F7CA01342F20915302211103C0E6
:1009F000E2EDF1E002C0E2E1F2E028E080959081D2
:100A000060FF02C0932B01C09823908338966695AF
:100A10002150A9F70895843048F46A3038F4E62F5D
:100A2000F0E0E853FB4F64910C94E804089584309F
:100A3000C8F4E82FF0E0EE52FB4FE49180915302AE
:100A4000811103C0A2EDB1E002C0A2E1B2E0509674
:100A50008C915097662311F0E82B02C0E095E823B3
:100A60005096EC930895EF92FF920F931F93CF93BC
:100A7000DF931F92CDB7DEB7F12C0AE010E0B8018A
:100A80000E94A30DE62E682F8F2D79830E940B05FF
:100A90008E2D7981972FF39424E0F212F0CF0F90EE
:100AA000DF91CF911F910F91FF90EF900895FC017E
:100AB00082810895AF92BF92CF92DF92EF92FF9220
:100AC0000F93FC018281811115C081E08283D6865B
:100AD000C586B08AA78663834483368325830783CC
:100AE000F186E08612861486138684EA8093BC0021
:100AF00081E001C080E00F91FF90EF90DF90CF90F8
:100B0000BF90AF90089589B185FB882780F94E99F1
:100B100082604F9984600895CF93DF93DC0181E078
:100B2000EB019F81911101C080E012968C93129786
:100B30001D96ED91FC911E97309769F081E0EB01D5
:100B40009F81911180E0682F1F968D919C91509705
:100B5000DF91CF910994DF91CF910895CF93DF93E7
:100B6000DC0181E0EB019F81911180E013968C9371
:100B700013971D96ED91FC911E97309769F081E0D7
:100B8000EB019F81911180E0682F1F968D919C91C0
:100B90005097DF91CF910994DF91CF910895EF9213
:100BA000FF920F931F93CF93DF93082F0E941A0495
:100BB000C0E0D0E010E08CE3E82EF12CCE01800FF5
:100BC000911FB7010E94B70D41E0682F8C2F8770ED
:100BD0000E9453042196CC33D10581F7DF91CF9148
:100BE0001F910F91FF90EF900C94B50380E98093D3
:100BF00066000E94290410926C0210926B0282E03F
:100C000080936A028BE380936902E0E3F5E08591CB
:100C10009491909382028093810280E00E94CF059C
:100C20008CE38093B800E9EBF0E080818C7F8083D7
:100C3000ECEBF0E0808184608083E1E8F0E080818B
:100C4000887F83608083A0E8B0E08C918C7F826095
:100C50008C93808188618083EFE6F0E08081816001
:100C600080838EE390E090938700809386000E94BB
:100C7000780378948091860290918702EEE7F2E003
:100C80009183808312820895CF9380916C020E9499
:100C9000620D30915D0290915E0280915F02232F80
:100CA0002077269526952695422F440F440F240F32
:100CB0003F70230F492F4077469546954695342F30
:100CC000330F330F430F9F70490F682F6073669582
:100CD00066956695962F990F990F690F8F70680F1B
:100CE00080916B020E94180D80915D02C82FC07721
:100CF000C695C695C6956C2F660F660FC60F8F708A
:100D0000C80FAAE08C2F6A2F0E94890D80FF23C094
:100D100090916102892F8073869586958695282FFC
:100D2000220F220F820F9F70980F24E6929FC0011E
:100D3000112420916202322F307124FD3AE02F708D
:100D4000230F820F911D0E94330561E080E00E9415
:100D5000170561E034C090915E0220915F02822FFE
:100D60008F70207330E044E0359527954A95E1F780
:100D700048EE53E0249FF001259FF00D349FF00DC5
:100D8000112444E6849FE00DF11D1124292F2077C2
:100D900030E054E0359527955A95E1F7A29FA001E0
:100DA000A39F500D11249F01240F351F9F70A9018F
:100DB000490F511DCA010E9433056C2F617082E0FA
:100DC000CF910C941705662331F180915D0287FF66
:100DD0000BC090916A02916090936A028F77809322
:100DE0005D0281E080935A0220916A0221FF0DC0CA
:100DF000809169028150809369028C3320F030E049
:100E00002D7F20936A020C94CF0522FD04C00E941E
:100E100044060C94B50308950E941A04E0918502DB
:100E2000F0E0EE0FFF1FE05DFA4F859194919093F3
:100E3000820280938102DC01ED91FC910480F581B6
:100E4000E02D60E009950C94B5038823E9F18091C9
:100E50006A0283FF1BC00E941A0480918102909154
:100E60008202DC01ED91FC910480F581E02D60E0CF
:100E700009958091810290918202DC01ED91FC91B3
:100E80000280F381E02D61E0099512C082FF12C05B
:100E9000886080936A020E941A0480918102909176
:100EA0008202DC01ED91FC910484F585E02D099529
:100EB0000C94B5031092850210928402857F8460A1
:100EC00080936A020C940C0708951F93CF93DF93CD
:100ED0001F92CDB7DEB7182F90916A0293FF1FC003
:100EE00069830E941A048091810290918202DC0140
:100EF000ED91FC910480F581E02D60E009958091F1
:100F0000810290918202DC01ED91FC910190F081CF
:100F1000E02D4981612F09950E94B5031EC092FF03
:100F20001EC01091850267FF0DC0115010938502FD
:100F30000E94930C181778F00E94930C81508093B4
:100F4000850209C01F5F109385020E94930C181739
:100F500010F0109285020E940C07109284020F90EC
:100F6000DF91CF911F910895DC0112968C91129719
:100F7000882309F4A6C08091BC008478843809F0E5
:100F8000A0C08091B900887F883271F41B968C9143
:100F90001B9714969C9114978917B0F017968C9113
:100FA0001797811139C036C08932F0F4803109F4C5
:100FB0004CC0883109F047C01B968C911B97149642
:100FC0009C911497891730F51596ED91FC91169721
:100FD00091E0980F1B969C931B97E80FF11D808161
:100FE0008093BB0084E819C0803509F441C088357E
:100FF000C9F51896ED91FC9119971C968C911C9748
:1010000091E0980F1C969C931C979091BB00E80F61
:10101000F11D908384E901C084EA8093BC0084FFC1
:1010200050C012961C9212971D96ED91FC911E973E
:10103000309709F446C0BD016D5F7F4F1F968D91BB
:101040009C9150970994883079F414962C911497B8
:101050001B969C911B9713968C9113972913C0CFC5
:101060008160BECF803421F11A968C931A97D2CF2B
:101070001896ED91FC9119971C968C911C9791E014
:10108000980F1C969C931C979091BB00E80FF11D44
:1010900090831C962C911C9730E017968C91179793
:1010A00090E00197281739070CF09CCF84ECB5CF5E
:1010B0001C969C911C9717968C9117979817B0F3D4
:1010C00091CF0895AF92BF92CF92DF92EF92FF92AD
:1010D0000F93CF938DE692E00E94B4070E948305A0
:1010E000C82F809155028823D1F18091860290917A
:1010F000870290915402891B8230F0F110925502C0
:1011000080915602C817C1F18C2782FF07C0C2FB2D
:10111000882780F991E089270E942507809156024F
:1011200080FD07C0C0FF05C080915702C1FF0EC0FF
:1011300008C081FF11C0C1FD0FC080915702C0FFE0
:1011400005C08F5F8093570261E004C08150809397
:1011500057026FEF0E946507C09356020DC0809141
:101160005602C81749F080918602909187028093B9
:10117000540281E08093550280915A02882389F1BC
:101180008091580290915902DC01ED91FC9102800E
:10119000F381E02D0995811124C01092660210920E
:1011A0006502109268021092670210925C028091B0
:1011B000580290915902DC01ED91FC910190F0816F
:1011C000E02D58E5A52E52E0B52E6CE8C62E65E060
:1011D000D62EE12CF12C00E02CE532E049E060ED68
:1011E000099580918002811163C08091860290915F
:1011F000870220917E0230917F02821B930B8039FF
:10120000914018F081E080938002809180028823D1
:1012100009F44EC08091580290915902DC01ED9181
:10122000FC910280F381E02D0995811128C083EEA5
:1012300096E0909366028093650210926802109285
:10124000670210925C028091580290915902DC0171
:10125000ED91FC910190F081E02D28E5A22E22E095
:10126000B22E3EEAC32E35E0D32E4DE5E42E42E009
:10127000F42E08E02CE532E041E060ED0995809124
:101280006A02882359F0909184029F5F90938402B0
:101290009B3520F090E0837F80936A0280918602E4
:1012A0009091870290937F0280937E021092800239
:1012B000CF910F91FF90EF90DF90CF90BF90AF90C4
:1012C0000895CF93DF93DB0181E0EA019F819111C3
:1012D00001C080E012968C9312971D96ED91FC91BF
:1012E0001E97309761F061E0EA018F81811160E023
:1012F0001F968D919C915097DF91CF910994DF912A
:10130000CF910895CF93DF93DB0181E0EA019F81C4
:10131000911180E013968C9313971D96ED91FC919B
:101320001E97309761F061E0EA018F81811160E0E2
:101330001F968D919C915097DF91CF910994DF91E9
:10134000CF910895CF93DF9382E080938002EDE602
:10135000F2E084E091E09183808312821386148608
:1013600016861586108A1786A8E5B2E01196FC93BA
:10137000EE931E961C921E921D9755985D9A569854
:101380005E9A57985F9AC4E5D2E019821B820E9448
:1013900083058A83DF91CF91089508950895089574
:1013A0000895CF93DF93EC01E881F9810480F58102
:1013B000E02D60E00995E881F9810680F781E02D54
:1013C000CE010995E881F9810284F385E02DCE01F3
:1013D000DF91CF91099480916B02809383020895ED
:1013E0008091830280936B02089580916C028093B8
:1013F000830208958091830280936C02089587B5DB
:1014000098B58093830208958091830290E098BDFF
:1014100087BD08950E94520380916A0290E0837F05
:1014200080936A020895862F6FE175E0805D0C94C9
:10143000CF04862F64E175E0825E0C94CF04862F82
:101440006DE075E0865D0C94CF04862F68E075E052
:10145000805D0C94CF04862F62E075E0835D0C9470
:10146000CF04862F6EEF74E08D5C0C94CF04862F32
:1014700065EF74E08C5D0C94CF04862F6DEE74E004
:10148000895D0C94CF04862F65EE74E0895D0C9421
:10149000CF04862F6AED74E0825E0C94CF040E9424
:1014A0001A04809183020C94620DCF9362E083E072
:1014B0000E940B0560E082E00E940B058091830290
:1014C000CAE06C2F0E94890D682F81E00E940B05F5
:1014D000809183026C2F0E94890D692F80E0CF914B
:1014E0000C940B05CF9380918302CAE06C2F0E946D
:1014F000890D682F81E00E940B05809183026C2F7B
:101500000E94890D692F80E0CF910C940B05CF9339
:1015100080918302CAE06C2F0E94890D682F81E0C0
:101520000E940B05809183026C2F0E94890D692F08
:1015300080E0CF910C940B05CF9365E083E00E948F
:101540000B0580918302CAE06C2F0E94890D682FE1
:1015500081E00E940B05809183026C2F0E94890D0F
:10156000692F80E0CF910C940B05CF93809183027B
:10157000CAE06C2F0E94890D682F81E00E940B0544
:10158000809183026C2F0E94890D692F80E0CF919A
:101590000C940B05CF9380918302CAE06C2F0E94BC
:1015A000890D682F83E00E940B05809183026C2FC8
:1015B0000E94890D692F82E0CF910C940B051F9337
:1015C000CF93DF931F92CDB7DEB780918302282F90
:1015D00030E038BD27BD14E6612F0E94890D682FC9
:1015E00082E00E940B0580918302612F0E94890D89
:1015F000892F6AE00E94890D682F81E099830E94FB
:101600000B059981692F80E00F90DF91CF911F9199
:101610000C940B05662369F0DC01ED91FC910084CC
:10162000F185E02D099580916A0290E0877F809393
:101630006A0208950E941A04E8E5F2E03581968175
:101640008781232F2077269526952695422F440FB4
:10165000440F240F3F70230F492F4077469546953E
:101660004695342F330F330F430F9F70490F682F68
:101670006073669566956695962F990F990F690F19
:101680008F70680F809183020C94180D8091610215
:10169000982F9073969596959695292F220F220F45
:1016A000920F8F70890F8093830208958091630257
:1016B000982F92959F708F702AE0929F800D112431
:1016C00080938302089580915E02982F907796957B
:1016D00096959695292F220F220F920F8F70890FC2
:1016E00080938302089580915D02982F907796955C
:1016F00096959695292F220F220F920F8F70890FA2
:1017000080938302089580915F02982F907396953D
:1017100096959695292F220F220F920F8F70890F81
:1017200080938302089580916202982F907184FDC6
:101730009AE08F70890F80938302089580918302CD
:10174000883170F46AE00E94890D292F30E1839F6F
:10175000C0011124822B80935F0281E080935A02A2
:101760000895809183028C3370F46AE00E94890DA1
:10177000292F30E1839FC0011124822B80935E02C8
:1017800081E080935A020895809183029FEF980F21
:101790009F3170F46AE00E94890D292F30E1839F08
:1017A000C0011124822B8093610281E080935A0250
:1017B0000895809183029FEF980F933670F46AE04A
:1017C0000E94890D292F30E1839FC0011124822BB3
:1017D0008093630281E080935A020895809183028E
:1017E0009FEF980F9C3070F48A3010F420E001C015
:1017F00020E16AE00E94890D922B9093620281E0C1
:1018000080935A020895809183028C3378F46AE0C1
:101810000E94890D82958077982B20915D02207817
:10182000922B90935D0281E080935A020895DC012F
:101830009091830267FF0CC09150692F092E000C14
:10184000770B30E06217730744F4409383020AC0B9
:101850009F5F491728F0921718F09093830202C0F7
:1018600020938302ED91FC9111970284F385E02D82
:10187000CD010994CF93DF93EC01642F24E14FEF66
:101880000E94170CE881F9810284F385E02DCE01D6
:10189000DF91CF910994CF93DF93EC01642F809176
:1018A000D0014FEF480F20E0CE010E94170CE881D5
:1018B000F9810284F385E02DCE01DF91CF91099467
:1018C000CF93DF93EC01642F9091D1014BEA949F69
:1018D000912D112496954FEF490F20E0CE010E94E3
:1018E000170CE881F9810284F385E02DCE01DF91A8
:1018F000CF910994642F20E043E60C94170C642FD9
:1019000021E04CE00C94170C642F20E04BE30C9486
:10191000170C642F20E04BE30C94170C642F20E08D
:1019200047E10C94170C8AE00895823021F463702B
:1019300061F08CE108959FEF980F9C3040F4E82F00
:10194000F0E0ED5DFA4F849108958DE1089580E017
:1019500008951F93CF93DF93EC01142F90916302AE
:10196000892F82958F709F70692F2AE0829F600D6A
:10197000112420916202322F307124FD3AE0822F2F
:101980008F70830F0E94950C21E0482F612FCE01AC
:10199000DF91CF911F910C94170C0E94F60578945B
:1019A0000E946208FDCFCF92DF92EF92FF920F93D9
:1019B0001F93CF93DF939C01FC018491860F87FDD9
:1019C000845C6CE30E94950DC92FF9013196049156
:1019D0002D5F3F4FF901E590F490D12CD016F9F02E
:1019E000F701C490F2E0EF0EF11CF701319714916A
:1019F000D0E0C0FE02C041E003C010FF05C040E0DF
:101A00006C2F8D2F0E9453041695C694DF5FD8303B
:101A100081F7CF5FCC3309F4C0E0D394DFCFDF91FF
:101A2000CF911F910F91FF90EF90DF90CF9008958D
:101A3000EF92FF920F931F93CF93DF9300D01F92EB
:101A4000CDB7DEB7082F162FE42FF0E0CF010696B2
:101A50006CE070E00E94B70D362F812F6CE00E9481
:101A6000890D892F880F880F980F930F99834A83C8
:101A70002B838FE0089F80011124045F194F7801A8
:101A80009FE0E90EF11CF8013296E491E33058F43E
:101A900081E090E08C0F9D1F8E0F911DFC016081F5
:101AA000C8010E94D30C0B5F1F4F0E151F0559F77D
:101AB0000F900F900F90DF91CF911F910F91FF909A
:101AC000EF900895FF920F931F93CF93DF93909120
:101AD000D0018917C0F49CE3899FE0011124CC5602
:101AE000DA4F10E0FE01F49000E04F2D4170612FBD
:101AF000802F0E9453040F5FF6940830B1F71F5FE8
:101B000021961C3379F7DF91CF911F910F91FF90B0
:101B10000895991B79E004C0991F961708F0961B49
:101B2000881F7A95C9F78095089587FB082E0626A9
:101B300087FD819567FD61950E94890D0EF4919551
:101B400007FC81950895AA1BBB1B51E107C0AA1F82
:101B5000BB1FA617B70710F0A61BB70B881F991F4E
:101B60005A95A9F780959095BC01CD01089597FBF2
:101B7000072E16F4009407D077FD09D00E94A30D1C
:101B800007FC05D03EF4909581959F4F0895709580
:101B900061957F4F0895EE0FFF1F0590F491E02DA2
:101BA0000994F999FECF92BD81BDF89A992780B525
:101BB0000895262FF999FECF1FBA92BD81BD20BD91
:101BC0000FB6F894FA9AF99A0FBE01960895F89410
:021BD000FFCF45
:101BD200000000005A055705B0019E018C017A01F0
:101BE200C2016801560144013201200100000000D7
:101BF2008E0C0A0B430A830B9E0BCA0AD109000002
:101C02000000890C0A0B3D0A630BB10BB50AD1091E
:101C120000000000840C0A0B370A730B030C9C0AA9
:101C2200D10900000000A90C0A0B310A460BC40BB3
:101C3200870AD109000000007F0C0A0B2B0A930BC4
:101C4200EE0B720AD109000000007A0C0A0B250A79
:101C5200560BD90B550AD10900000000600C0A0B83
:101C62001F0AEB09F0091A0BD109000000004B0C06
:101C72000A0B190AF509FA094F0AD10900000000F6
:101C82003A0C0A0B490AFF09040ADF0AD1090000CB
:101C92000000CD090A0B130ACE09CF09D0090A0A9E
:021CA200020638
:00000001FF
